{
  "_format": "hh-sol-artifact-1",
  "contractName": "CivixVoting",
  "sourceName": "contracts/CivixVoting.sol",
  "abi": [
    {
      "inputs": [],
      "stateMutability": "nonpayable",
      "type": "constructor"
    },
    {
      "anonymous": false,
      "inputs": [
        {
          "indexed": true,
          "internalType": "uint256",
          "name": "electionId",
          "type": "uint256"
        },
        {
          "indexed": true,
          "internalType": "uint256",
          "name": "candidateId",
          "type": "uint256"
        },
        {
          "indexed": false,
          "internalType": "string",
          "name": "name",
          "type": "string"
        }
      ],
      "name": "CandidateAdded",
      "type": "event"
    },
    {
      "anonymous": false,
      "inputs": [
        {
          "indexed": true,
          "internalType": "uint256",
          "name": "electionId",
          "type": "uint256"
        },
        {
          "indexed": true,
          "internalType": "uint256",
          "name": "candidateId",
          "type": "uint256"
        },
        {
          "indexed": false,
          "internalType": "bool",
          "name": "isActive",
          "type": "bool"
        }
      ],
      "name": "CandidateStatusChanged",
      "type": "event"
    },
    {
      "anonymous": false,
      "inputs": [
        {
          "indexed": true,
          "internalType": "uint256",
          "name": "electionId",
          "type": "uint256"
        },
        {
          "indexed": true,
          "internalType": "uint256",
          "name": "candidateId",
          "type": "uint256"
        },
        {
          "indexed": false,
          "internalType": "string",
          "name": "name",
          "type": "string"
        },
        {
          "indexed": false,
          "internalType": "string",
          "name": "description",
          "type": "string"
        }
      ],
      "name": "CandidateUpdated",
      "type": "event"
    },
    {
      "anonymous": false,
      "inputs": [
        {
          "indexed": true,
          "internalType": "uint256",
          "name": "electionId",
          "type": "uint256"
        },
        {
          "indexed": false,
          "internalType": "string",
          "name": "title",
          "type": "string"
        },
        {
          "indexed": false,
          "internalType": "uint256",
          "name": "startTime",
          "type": "uint256"
        },
        {
          "indexed": false,
          "internalType": "uint256",
          "name": "endTime",
          "type": "uint256"
        }
      ],
      "name": "ElectionCreated",
      "type": "event"
    },
    {
      "anonymous": false,
      "inputs": [
        {
          "indexed": true,
          "internalType": "uint256",
          "name": "electionId",
          "type": "uint256"
        },
        {
          "indexed": false,
          "internalType": "bool",
          "name": "isActive",
          "type": "bool"
        }
      ],
      "name": "ElectionStatusChanged",
      "type": "event"
    },
    {
      "anonymous": false,
      "inputs": [
        {
          "indexed": true,
          "internalType": "address",
          "name": "previousOwner",
          "type": "address"
        },
        {
          "indexed": true,
          "internalType": "address",
          "name": "newOwner",
          "type": "address"
        }
      ],
      "name": "OwnershipTransferred",
      "type": "event"
    },
    {
      "anonymous": false,
      "inputs": [
        {
          "indexed": false,
          "internalType": "address",
          "name": "account",
          "type": "address"
        }
      ],
      "name": "Paused",
      "type": "event"
    },
    {
      "anonymous": false,
      "inputs": [
        {
          "indexed": false,
          "internalType": "address",
          "name": "account",
          "type": "address"
        }
      ],
      "name": "Unpaused",
      "type": "event"
    },
    {
      "anonymous": false,
      "inputs": [
        {
          "indexed": true,
          "internalType": "uint256",
          "name": "electionId",
          "type": "uint256"
        },
        {
          "indexed": true,
          "internalType": "uint256",
          "name": "candidateId",
          "type": "uint256"
        },
        {
          "indexed": true,
          "internalType": "address",
          "name": "voter",
          "type": "address"
        },
        {
          "indexed": false,
          "internalType": "uint256",
          "name": "timestamp",
          "type": "uint256"
        }
      ],
      "name": "VoteCasted",
      "type": "event"
    },
    {
      "inputs": [
        {
          "internalType": "uint256",
          "name": "_electionId",
          "type": "uint256"
        },
        {
          "internalType": "string",
          "name": "_name",
          "type": "string"
        },
        {
          "internalType": "string",
          "name": "_description",
          "type": "string"
        }
      ],
      "name": "addCandidate",
      "outputs": [
        {
          "internalType": "uint256",
          "name": "",
          "type": "uint256"
        }
      ],
      "stateMutability": "nonpayable",
      "type": "function"
    },
    {
      "inputs": [
        {
          "internalType": "uint256",
          "name": "_electionId",
          "type": "uint256"
        },
        {
          "internalType": "uint256",
          "name": "_candidateId",
          "type": "uint256"
        },
        {
          "internalType": "string",
          "name": "_voterIdHash",
          "type": "string"
        }
      ],
      "name": "castVote",
      "outputs": [],
      "stateMutability": "nonpayable",
      "type": "function"
    },
    {
      "inputs": [
        {
          "internalType": "string",
          "name": "_title",
          "type": "string"
        },
        {
          "internalType": "string",
          "name": "_description",
          "type": "string"
        },
        {
          "internalType": "uint256",
          "name": "_startTime",
          "type": "uint256"
        },
        {
          "internalType": "uint256",
          "name": "_endTime",
          "type": "uint256"
        }
      ],
      "name": "createElection",
      "outputs": [
        {
          "internalType": "uint256",
          "name": "",
          "type": "uint256"
        }
      ],
      "stateMutability": "nonpayable",
      "type": "function"
    },
    {
      "inputs": [],
      "name": "electionCount",
      "outputs": [
        {
          "internalType": "uint256",
          "name": "",
          "type": "uint256"
        }
      ],
      "stateMutability": "view",
      "type": "function"
    },
    {
      "inputs": [
        {
          "internalType": "uint256",
          "name": "",
          "type": "uint256"
        }
      ],
      "name": "elections",
      "outputs": [
        {
          "internalType": "uint256",
          "name": "id",
          "type": "uint256"
        },
        {
          "internalType": "string",
          "name": "title",
          "type": "string"
        },
        {
          "internalType": "string",
          "name": "description",
          "type": "string"
        },
        {
          "internalType": "uint256",
          "name": "startTime",
          "type": "uint256"
        },
        {
          "internalType": "uint256",
          "name": "endTime",
          "type": "uint256"
        },
        {
          "internalType": "bool",
          "name": "isActive",
          "type": "bool"
        },
        {
          "internalType": "uint256",
          "name": "candidateCount",
          "type": "uint256"
        },
        {
          "internalType": "uint256",
          "name": "totalVotes",
          "type": "uint256"
        }
      ],
      "stateMutability": "view",
      "type": "function"
    },
    {
      "inputs": [
        {
          "internalType": "uint256",
          "name": "_electionId",
          "type": "uint256"
        }
      ],
      "name": "getAllCandidates",
      "outputs": [
        {
          "internalType": "uint256[]",
          "name": "ids",
          "type": "uint256[]"
        },
        {
          "internalType": "string[]",
          "name": "names",
          "type": "string[]"
        },
        {
          "internalType": "string[]",
          "name": "descriptions",
          "type": "string[]"
        },
        {
          "internalType": "uint256[]",
          "name": "voteCounts",
          "type": "uint256[]"
        },
        {
          "internalType": "bool[]",
          "name": "activeStatuses",
          "type": "bool[]"
        }
      ],
      "stateMutability": "view",
      "type": "function"
    },
    {
      "inputs": [
        {
          "internalType": "uint256",
          "name": "_electionId",
          "type": "uint256"
        },
        {
          "internalType": "uint256",
          "name": "_candidateId",
          "type": "uint256"
        }
      ],
      "name": "getCandidate",
      "outputs": [
        {
          "internalType": "uint256",
          "name": "id",
          "type": "uint256"
        },
        {
          "internalType": "string",
          "name": "name",
          "type": "string"
        },
        {
          "internalType": "string",
          "name": "description",
          "type": "string"
        },
        {
          "internalType": "uint256",
          "name": "voteCount",
          "type": "uint256"
        },
        {
          "internalType": "bool",
          "name": "isActive",
          "type": "bool"
        }
      ],
      "stateMutability": "view",
      "type": "function"
    },
    {
      "inputs": [
        {
          "internalType": "uint256",
          "name": "_electionId",
          "type": "uint256"
        }
      ],
      "name": "getElection",
      "outputs": [
        {
          "internalType": "uint256",
          "name": "id",
          "type": "uint256"
        },
        {
          "internalType": "string",
          "name": "title",
          "type": "string"
        },
        {
          "internalType": "string",
          "name": "description",
          "type": "string"
        },
        {
          "internalType": "uint256",
          "name": "startTime",
          "type": "uint256"
        },
        {
          "internalType": "uint256",
          "name": "endTime",
          "type": "uint256"
        },
        {
          "internalType": "bool",
          "name": "isActive",
          "type": "bool"
        },
        {
          "internalType": "uint256",
          "name": "candidateCount",
          "type": "uint256"
        },
        {
          "internalType": "uint256",
          "name": "totalVotes",
          "type": "uint256"
        }
      ],
      "stateMutability": "view",
      "type": "function"
    },
    {
      "inputs": [
        {
          "internalType": "uint256",
          "name": "_electionId",
          "type": "uint256"
        }
      ],
      "name": "getElectionResults",
      "outputs": [
        {
          "internalType": "uint256[]",
          "name": "candidateIds",
          "type": "uint256[]"
        },
        {
          "internalType": "string[]",
          "name": "candidateNames",
          "type": "string[]"
        },
        {
          "internalType": "uint256[]",
          "name": "voteCounts",
          "type": "uint256[]"
        },
        {
          "internalType": "uint256",
          "name": "totalVotes",
          "type": "uint256"
        }
      ],
      "stateMutability": "view",
      "type": "function"
    },
    {
      "inputs": [
        {
          "internalType": "address",
          "name": "_voter",
          "type": "address"
        },
        {
          "internalType": "uint256",
          "name": "_electionId",
          "type": "uint256"
        }
      ],
      "name": "hasVotedInElection",
      "outputs": [
        {
          "internalType": "bool",
          "name": "",
          "type": "bool"
        }
      ],
      "stateMutability": "view",
      "type": "function"
    },
    {
      "inputs": [],
      "name": "owner",
      "outputs": [
        {
          "internalType": "address",
          "name": "",
          "type": "address"
        }
      ],
      "stateMutability": "view",
      "type": "function"
    },
    {
      "inputs": [],
      "name": "pause",
      "outputs": [],
      "stateMutability": "nonpayable",
      "type": "function"
    },
    {
      "inputs": [],
      "name": "paused",
      "outputs": [
        {
          "internalType": "bool",
          "name": "",
          "type": "bool"
        }
      ],
      "stateMutability": "view",
      "type": "function"
    },
    {
      "inputs": [],
      "name": "renounceOwnership",
      "outputs": [],
      "stateMutability": "nonpayable",
      "type": "function"
    },
    {
      "inputs": [
        {
          "internalType": "uint256",
          "name": "_electionId",
          "type": "uint256"
        },
        {
          "internalType": "uint256",
          "name": "_candidateId",
          "type": "uint256"
        },
        {
          "internalType": "bool",
          "name": "_isActive",
          "type": "bool"
        }
      ],
      "name": "setCandidateActive",
      "outputs": [],
      "stateMutability": "nonpayable",
      "type": "function"
    },
    {
      "inputs": [
        {
          "internalType": "uint256",
          "name": "_electionId",
          "type": "uint256"
        }
      ],
      "name": "toggleElectionStatus",
      "outputs": [],
      "stateMutability": "nonpayable",
      "type": "function"
    },
    {
      "inputs": [
        {
          "internalType": "address",
          "name": "newOwner",
          "type": "address"
        }
      ],
      "name": "transferOwnership",
      "outputs": [],
      "stateMutability": "nonpayable",
      "type": "function"
    },
    {
      "inputs": [],
      "name": "unpause",
      "outputs": [],
      "stateMutability": "nonpayable",
      "type": "function"
    },
    {
      "inputs": [
        {
          "internalType": "uint256",
          "name": "_electionId",
          "type": "uint256"
        },
        {
          "internalType": "uint256",
          "name": "_candidateId",
          "type": "uint256"
        },
        {
          "internalType": "string",
          "name": "_name",
          "type": "string"
        },
        {
          "internalType": "string",
          "name": "_description",
          "type": "string"
        }
      ],
      "name": "updateCandidate",
      "outputs": [],
      "stateMutability": "nonpayable",
      "type": "function"
    },
    {
      "inputs": [
        {
          "internalType": "string",
          "name": "",
          "type": "string"
        }
      ],
      "name": "usedVoterIds",
      "outputs": [
        {
          "internalType": "bool",
          "name": "",
          "type": "bool"
        }
      ],
      "stateMutability": "view",
      "type": "function"
    },
    {
      "inputs": [
        {
          "internalType": "address",
          "name": "",
          "type": "address"
        },
        {
          "internalType": "uint256",
          "name": "",
          "type": "uint256"
        }
      ],
      "name": "voters",
      "outputs": [
        {
          "internalType": "bool",
          "name": "hasVoted",
          "type": "bool"
        },
        {
          "internalType": "uint256",
          "name": "votedElectionId",
          "type": "uint256"
        },
        {
          "internalType": "uint256",
          "name": "votedCandidateId",
          "type": "uint256"
        },
        {
          "internalType": "uint256",
          "name": "timestamp",
          "type": "uint256"
        }
      ],
      "stateMutability": "view",
      "type": "function"
    }
  ],
  "bytecode": "0x608060405234801561001057600080fd5b5061001a3361002d565b600180556002805460ff1916905561007d565b600080546001600160a01b038381166001600160a01b0319831681178455604051919092169283917f8be0079c531659141344cd1fd0a4f28419497f9722a3daafe3b4186f6b6457e09190a35050565b61258d8061008c6000396000f3fe608060405234801561001057600080fd5b50600436106101375760003560e01c80637ad36e84116100b85780639d7107771161007c5780639d710777146102ea578063e6c62efc146102fd578063e8ededa614610310578063f2fde38b14610333578063f9abea2f14610346578063f9ded6461461035957600080fd5b80637ad36e841461028a5780638456cb59146102ab5780638da5cb5b146102b357806391585ba7146102ce578063997d2830146102e157600080fd5b80635c134d66116100ff5780635c134d66146101d75780635c975abb1461023d5780635e6fef0114610248578063674634fe1461026f578063715018a61461028257600080fd5b806316ed95c81461013c57806324f99b1e146101515780633f4ba83a146101645780634bd464481461016c57806357c29e0514610199575b600080fd5b61014f61014a366004611c93565b61037d565b005b61014f61015f366004611d4e565b61041e565b61014f6108a4565b61017f61017a366004611d9d565b6108b6565b604051610190959493929190611e0f565b60405180910390f35b6101c76101a7366004611e54565b805160208183018101805160058252928201919093012091525460ff1681565b6040519015158152602001610190565b61021b6101e5366004611eac565b6004602090815260009283526040808420909152908252902080546001820154600283015460039093015460ff90921692909184565b6040805194151585526020850193909352918301526060820152608001610190565b60025460ff166101c7565b61025b610256366004611c93565b610a9b565b604051610190989796959493929190611ed6565b61014f61027d366004611f30565b610bf0565b61014f610cd1565b61029d610298366004611f6e565b610ce3565b604051908152602001610190565b61014f610e9c565b6000546040516001600160a01b039091168152602001610190565b6101c76102dc366004611eac565b610eac565b61029d60065481565b61025b6102f8366004611c93565b610eda565b61029d61030b366004611fe1565b611095565b61032361031e366004611c93565b611251565b60405161019094939291906120d3565b61014f61034136600461211e565b6114b9565b61014f610354366004612140565b611532565b61036c610367366004611c93565b611690565b6040516101909594939291906121b6565b610385611a72565b8060008111801561039857506006548111155b6103bd5760405162461bcd60e51b81526004016103b49061224b565b60405180910390fd5b600082815260036020908152604091829020600501805460ff8082161560ff199092168217909255925192161515825283917f550243ff1a84cc99f7f82bfd2e29380f33523ca72cde0783141c25ed8f4dede3910160405180910390a25050565b610426611acc565b61042e611b25565b8260008111801561044157506006548111155b61045d5760405162461bcd60e51b81526004016103b49061224b565b600084815260036020526040902060050154849060ff166104b95760405162461bcd60e51b8152602060048201526016602482015275456c656374696f6e206973206e6f742061637469766560501b60448201526064016103b4565b6000818152600360208190526040909120015442101561051b5760405162461bcd60e51b815260206004820152601860248201527f456c656374696f6e20686173206e6f742073746172746564000000000000000060448201526064016103b4565b6000818152600360205260409020600401544211156105715760405162461bcd60e51b8152602060048201526012602482015271115b1958dd1a5bdb881a185cc8195b99195960721b60448201526064016103b4565b848460008111801561059457506000828152600360205260409020600701548111155b6105b05760405162461bcd60e51b81526004016103b490612282565b3360009081526004602090815260408083208a8452909152902054879060ff161561062d5760405162461bcd60e51b815260206004820152602760248201527f596f75206861766520616c726561647920766f74656420696e207468697320656044820152663632b1ba34b7b760c91b60648201526084016103b4565b60058660405161063d91906122b9565b9081526040519081900360200190205460ff16156106a95760405162461bcd60e51b815260206004820152602360248201527f5468697320766f7465722049442068617320616c7265616479206265656e20756044820152621cd95960ea1b60648201526084016103b4565b60008881526003602090815260408083208a845260060190915290206004015460ff166107185760405162461bcd60e51b815260206004820152601760248201527f43616e646964617465206973206e6f742061637469766500000000000000000060448201526064016103b4565b600160058760405161072a91906122b9565b908152602001604051809103902060006101000a81548160ff02191690831515021790555060405180608001604052806001151581526020018981526020018881526020014281525060046000336001600160a01b03166001600160a01b0316815260200190815260200160002060008a815260200190815260200160002060008201518160000160006101000a81548160ff0219169083151502179055506020820151816001015560408201518160020155606082015181600301559050506003600089815260200190815260200160002060060160008881526020019081526020016000206003016000815480929190610825906122eb565b90915550506000888152600360205260408120600801805491610847836122eb565b9190505550336001600160a01b031687897f65d454d478da372551c82c6c75a03804bc30df370b0edebfd72aaabca9c2e6e14260405161088991815260200190565b60405180910390a4505050505061089f60018055565b505050565b6108ac611a72565b6108b4611b6b565b565b6000606080600080866000811180156108d157506006548111155b6108ed5760405162461bcd60e51b81526004016103b49061224b565b878760008111801561091057506000828152600360205260409020600701548111155b61092c5760405162461bcd60e51b81526004016103b490612282565b60008a81526003602081815260408084208d8552600601909152909120805491810154600482015460018301805493949390926002860192909160ff90911690849061097790612304565b80601f01602080910402602001604051908101604052809291908181526020018280546109a390612304565b80156109f05780601f106109c5576101008083540402835291602001916109f0565b820191906000526020600020905b8154815290600101906020018083116109d357829003601f168201915b50505050509350828054610a0390612304565b80601f0160208091040260200160405190810160405280929190818152602001828054610a2f90612304565b8015610a7c5780601f10610a5157610100808354040283529160200191610a7c565b820191906000526020600020905b815481529060010190602001808311610a5f57829003601f168201915b5050505050925098509850985098509850505050509295509295909350565b60036020526000908152604090208054600182018054919291610abd90612304565b80601f0160208091040260200160405190810160405280929190818152602001828054610ae990612304565b8015610b365780601f10610b0b57610100808354040283529160200191610b36565b820191906000526020600020905b815481529060010190602001808311610b1957829003601f168201915b505050505090806002018054610b4b90612304565b80601f0160208091040260200160405190810160405280929190818152602001828054610b7790612304565b8015610bc45780601f10610b9957610100808354040283529160200191610bc4565b820191906000526020600020905b815481529060010190602001808311610ba757829003601f168201915b50505060038401546004850154600586015460078701546008909701549596929591945060ff16925088565b610bf8611a72565b82600081118015610c0b57506006548111155b610c275760405162461bcd60e51b81526004016103b49061224b565b8383600081118015610c4a57506000828152600360205260409020600701548111155b610c665760405162461bcd60e51b81526004016103b490612282565b6000868152600360209081526040808320888452600601825291829020600401805460ff19168715159081179091559151918252869188917f2bb42803c7cb9ff71286ae87a1693ba570e490a2cc7497a917879f5f1bad03ff910160405180910390a3505050505050565b610cd9611a72565b6108b46000611bbd565b6000610ced611a72565b6000855111610d365760405162461bcd60e51b81526020600482015260156024820152745469746c652063616e6e6f7420626520656d70747960581b60448201526064016103b4565b828211610d8f5760405162461bcd60e51b815260206004820152602160248201527f456e642074696d65206d7573742062652061667465722073746172742074696d6044820152606560f81b60648201526084016103b4565b428311610dde5760405162461bcd60e51b815260206004820181905260248201527f53746172742074696d65206d75737420626520696e207468652066757475726560448201526064016103b4565b60068054906000610dee836122eb565b9091555050600654600081815260036020526040902090815560018101610e15878261238c565b5060028101610e24868261238c565b50600381018490556004810183905560058101805460ff1916600117905560006007820181905560088201556006546040517fe7a0aae5d733e07e246dea86213a1ac1b0aa8554bde889bb75c12752f44e53d990610e879089908890889061244b565b60405180910390a25050600654949350505050565b610ea4611a72565b6108b4611c0d565b6001600160a01b038216600090815260046020908152604080832084845290915290205460ff165b92915050565b6000606080600080600080600088600081118015610efa57506006548111155b610f165760405162461bcd60e51b81526004016103b49061224b565b6000600360008c8152602001908152602001600020905080600001548160010182600201836003015484600401548560050160009054906101000a900460ff1686600701548760080154868054610f6c90612304565b80601f0160208091040260200160405190810160405280929190818152602001828054610f9890612304565b8015610fe55780601f10610fba57610100808354040283529160200191610fe5565b820191906000526020600020905b815481529060010190602001808311610fc857829003601f168201915b50505050509650858054610ff890612304565b80601f016020809104026020016040519081016040528092919081815260200182805461102490612304565b80156110715780601f1061104657610100808354040283529160200191611071565b820191906000526020600020905b81548152906001019060200180831161105457829003601f168201915b50505050509550995099509950995099509950995099505050919395975091939597565b600061109f611a72565b836000811180156110b257506006548111155b6110ce5760405162461bcd60e51b81526004016103b49061224b565b600084511161111f5760405162461bcd60e51b815260206004820152601e60248201527f43616e646964617465206e616d652063616e6e6f7420626520656d707479000060448201526064016103b4565b6000858152600360208190526040909120015442106111945760405162461bcd60e51b815260206004820152602b60248201527f43616e6e6f74206164642063616e6469646174657320616674657220656c656360448201526a74696f6e2073746172747360a81b60648201526084016103b4565b600085815260036020526040812060078101805491926111b3836122eb565b9091555050600781015460008181526006830160205260409020908155600181016111de878261238c565b50600281016111ed868261238c565b506000600382015560048101805460ff19166001179055600782015460405188907fed8911b3df733b7d5f75724158e54478ea12e30f49c9d31b5261879f5b76586f9061123b908a90612470565b60405180910390a3506007015495945050505050565b606080606060008460008111801561126b57506006548111155b6112875760405162461bcd60e51b81526004016103b49061224b565b60008681526003602052604090206007810154806001600160401b038111156112b2576112b2611cac565b6040519080825280602002602001820160405280156112db578160200160208202803683370190505b509650806001600160401b038111156112f6576112f6611cac565b60405190808252806020026020018201604052801561132957816020015b60608152602001906001900390816113145790505b509550806001600160401b0381111561134457611344611cac565b60405190808252806020026020018201604052801561136d578160200160208202803683370190505b50945060015b8181116114a95760008181526006840160205260409020805489611398600185612483565b815181106113a8576113a8612496565b6020026020010181815250508060010180546113c390612304565b80601f01602080910402602001604051908101604052809291908181526020018280546113ef90612304565b801561143c5780601f106114115761010080835404028352916020019161143c565b820191906000526020600020905b81548152906001019060200180831161141f57829003601f168201915b50505050508860018461144f9190612483565b8151811061145f5761145f612496565b602090810291909101015260038101548761147b600185612483565b8151811061148b5761148b612496565b602090810291909101015250806114a1816122eb565b915050611373565b5050600801549150509193509193565b6114c1611a72565b6001600160a01b0381166115265760405162461bcd60e51b815260206004820152602660248201527f4f776e61626c653a206e6577206f776e657220697320746865207a65726f206160448201526564647265737360d01b60648201526084016103b4565b61152f81611bbd565b50565b61153a611a72565b8360008111801561154d57506006548111155b6115695760405162461bcd60e51b81526004016103b49061224b565b848460008111801561158c57506000828152600360205260409020600701548111155b6115a85760405162461bcd60e51b81526004016103b490612282565b6000855111806115b9575060008451115b6115fb5760405162461bcd60e51b81526020600482015260136024820152724e6f206669656c647320746f2075706461746560681b60448201526064016103b4565b6000878152600360209081526040808320898452600601909152902085511561162e576001810161162c878261238c565b505b8451156116455760028101611643868261238c565b505b86887f1cfef63ae66fa2e13aaddcfc4065695f5a4d174df072f2c195890e0813418404836001018460020160405161167e929190612529565b60405180910390a35050505050505050565b6060806060806060856000811180156116ab57506006548111155b6116c75760405162461bcd60e51b81526004016103b49061224b565b60008781526003602052604090206007810154806001600160401b038111156116f2576116f2611cac565b60405190808252806020026020018201604052801561171b578160200160208202803683370190505b509750806001600160401b0381111561173657611736611cac565b60405190808252806020026020018201604052801561176957816020015b60608152602001906001900390816117545790505b509650806001600160401b0381111561178457611784611cac565b6040519080825280602002602001820160405280156117b757816020015b60608152602001906001900390816117a25790505b509550806001600160401b038111156117d2576117d2611cac565b6040519080825280602002602001820160405280156117fb578160200160208202803683370190505b509450806001600160401b0381111561181657611816611cac565b60405190808252806020026020018201604052801561183f578160200160208202803683370190505b50935060015b818111611a65576000818152600684016020526040902080548a61186a600185612483565b8151811061187a5761187a612496565b60200260200101818152505080600101805461189590612304565b80601f01602080910402602001604051908101604052809291908181526020018280546118c190612304565b801561190e5780601f106118e35761010080835404028352916020019161190e565b820191906000526020600020905b8154815290600101906020018083116118f157829003601f168201915b5050505050896001846119219190612483565b8151811061193157611931612496565b602002602001018190525080600201805461194b90612304565b80601f016020809104026020016040519081016040528092919081815260200182805461197790612304565b80156119c45780601f10611999576101008083540402835291602001916119c4565b820191906000526020600020905b8154815290600101906020018083116119a757829003601f168201915b5050505050886001846119d79190612483565b815181106119e7576119e7612496565b6020908102919091010152600381015487611a03600185612483565b81518110611a1357611a13612496565b6020908102919091010152600481015460ff1686611a32600185612483565b81518110611a4257611a42612496565b911515602092830291909101909101525080611a5d816122eb565b915050611845565b5050505091939590929450565b6000546001600160a01b031633146108b45760405162461bcd60e51b815260206004820181905260248201527f4f776e61626c653a2063616c6c6572206973206e6f7420746865206f776e657260448201526064016103b4565b600260015403611b1e5760405162461bcd60e51b815260206004820152601f60248201527f5265656e7472616e637947756172643a207265656e7472616e742063616c6c0060448201526064016103b4565b6002600155565b60025460ff16156108b45760405162461bcd60e51b815260206004820152601060248201526f14185d5cd8589b194e881c185d5cd95960821b60448201526064016103b4565b611b73611c4a565b6002805460ff191690557f5db9ee0a495bf2e6ff9c91a7834c1ba4fdd244a5e8aa4e537bd38aeae4b073aa335b6040516001600160a01b03909116815260200160405180910390a1565b600080546001600160a01b038381166001600160a01b0319831681178455604051919092169283917f8be0079c531659141344cd1fd0a4f28419497f9722a3daafe3b4186f6b6457e09190a35050565b611c15611b25565b6002805460ff191660011790557f62e78cea01bee320cd4e420270b5ea74000d11b0c9f74754ebdbfc544b05a258611ba03390565b60025460ff166108b45760405162461bcd60e51b815260206004820152601460248201527314185d5cd8589b194e881b9bdd081c185d5cd95960621b60448201526064016103b4565b600060208284031215611ca557600080fd5b5035919050565b634e487b7160e01b600052604160045260246000fd5b600082601f830112611cd357600080fd5b81356001600160401b0380821115611ced57611ced611cac565b604051601f8301601f19908116603f01168101908282118183101715611d1557611d15611cac565b81604052838152866020858801011115611d2e57600080fd5b836020870160208301376000602085830101528094505050505092915050565b600080600060608486031215611d6357600080fd5b833592506020840135915060408401356001600160401b03811115611d8757600080fd5b611d9386828701611cc2565b9150509250925092565b60008060408385031215611db057600080fd5b50508035926020909101359150565b60005b83811015611dda578181015183820152602001611dc2565b50506000910152565b60008151808452611dfb816020860160208601611dbf565b601f01601f19169290920160200192915050565b85815260a060208201526000611e2860a0830187611de3565b8281036040840152611e3a8187611de3565b606084019590955250509015156080909101529392505050565b600060208284031215611e6657600080fd5b81356001600160401b03811115611e7c57600080fd5b611e8884828501611cc2565b949350505050565b80356001600160a01b0381168114611ea757600080fd5b919050565b60008060408385031215611ebf57600080fd5b611ec883611e90565b946020939093013593505050565b60006101008a8352806020840152611ef08184018b611de3565b90508281036040840152611f04818a611de3565b60608401989098525050608081019490945291151560a084015260c083015260e0909101529392505050565b600080600060608486031215611f4557600080fd5b833592506020840135915060408401358015158114611f6357600080fd5b809150509250925092565b60008060008060808587031215611f8457600080fd5b84356001600160401b0380821115611f9b57600080fd5b611fa788838901611cc2565b95506020870135915080821115611fbd57600080fd5b50611fca87828801611cc2565b949794965050505060408301359260600135919050565b600080600060608486031215611ff657600080fd5b8335925060208401356001600160401b038082111561201457600080fd5b61202087838801611cc2565b9350604086013591508082111561203657600080fd5b50611d9386828701611cc2565b600081518084526020808501945080840160005b8381101561207357815187529582019590820190600101612057565b509495945050505050565b600081518084526020808501808196508360051b8101915082860160005b858110156120c65782840389526120b4848351611de3565b9885019893509084019060010161209c565b5091979650505050505050565b6080815260006120e66080830187612043565b82810360208401526120f8818761207e565b9050828103604084015261210c8186612043565b91505082606083015295945050505050565b60006020828403121561213057600080fd5b61213982611e90565b9392505050565b6000806000806080858703121561215657600080fd5b843593506020850135925060408501356001600160401b038082111561217b57600080fd5b61218788838901611cc2565b9350606087013591508082111561219d57600080fd5b506121aa87828801611cc2565b91505092959194509250565b60a0815260006121c960a0830188612043565b6020838203818501526121dc828961207e565b915083820360408501526121f0828861207e565b915083820360608501526122048287612043565b8481036080860152855180825282870193509082019060005b8181101561223b57845115158352938301939183019160010161221d565b50909a9950505050505050505050565b60208082526017908201527f456c656374696f6e20646f6573206e6f74206578697374000000000000000000604082015260600190565b60208082526018908201527f43616e64696461746520646f6573206e6f742065786973740000000000000000604082015260600190565b600082516122cb818460208701611dbf565b9190910192915050565b634e487b7160e01b600052601160045260246000fd5b6000600182016122fd576122fd6122d5565b5060010190565b600181811c9082168061231857607f821691505b60208210810361233857634e487b7160e01b600052602260045260246000fd5b50919050565b601f82111561089f57600081815260208120601f850160051c810160208610156123655750805b601f850160051c820191505b8181101561238457828155600101612371565b505050505050565b81516001600160401b038111156123a5576123a5611cac565b6123b9816123b38454612304565b8461233e565b602080601f8311600181146123ee57600084156123d65750858301515b600019600386901b1c1916600185901b178555612384565b600085815260208120601f198616915b8281101561241d578886015182559484019460019091019084016123fe565b508582101561243b5787850151600019600388901b60f8161c191681555b5050505050600190811b01905550565b60608152600061245e6060830186611de3565b60208301949094525060400152919050565b6020815260006121396020830184611de3565b81810381811115610ed457610ed46122d5565b634e487b7160e01b600052603260045260246000fd5b600081546124b981612304565b8085526020600183811680156124d657600181146124f05761251e565b60ff1985168884015283151560051b88018301955061251e565b866000528260002060005b858110156125165781548a82018601529083019084016124fb565b890184019650505b505050505092915050565b60408152600061253c60408301856124ac565b828103602084015261254e81856124ac565b9594505050505056fea2646970667358221220874a49aa59e8334c6df9f17275a034f57e2d6ef94c8bb4d236eaaacfa5f8b1d264736f6c63430008130033",
  "linkReferences": {},
  "deployedLinkReferences": {}
}