{
  "_format": "hh-sol-artifact-1",
  "contractName": "CivixVoting",
  "sourceName": "contracts/CivixVoting.sol",
  "abi": [
    {
      "inputs": [],
      "stateMutability": "nonpayable",
      "type": "constructor"
    },
    {
      "anonymous": false,
      "inputs": [
        {
          "indexed": true,
          "internalType": "uint256",
          "name": "electionId",
          "type": "uint256"
        },
        {
          "indexed": true,
          "internalType": "uint256",
          "name": "candidateId",
          "type": "uint256"
        },
        {
          "indexed": false,
          "internalType": "string",
          "name": "name",
          "type": "string"
        }
      ],
      "name": "CandidateAdded",
      "type": "event"
    },
    {
      "anonymous": false,
      "inputs": [
        {
          "indexed": true,
          "internalType": "uint256",
          "name": "electionId",
          "type": "uint256"
        },
        {
          "indexed": false,
          "internalType": "string",
          "name": "title",
          "type": "string"
        },
        {
          "indexed": false,
          "internalType": "uint256",
          "name": "startTime",
          "type": "uint256"
        },
        {
          "indexed": false,
          "internalType": "uint256",
          "name": "endTime",
          "type": "uint256"
        }
      ],
      "name": "ElectionCreated",
      "type": "event"
    },
    {
      "anonymous": false,
      "inputs": [
        {
          "indexed": true,
          "internalType": "uint256",
          "name": "electionId",
          "type": "uint256"
        },
        {
          "indexed": false,
          "internalType": "bool",
          "name": "isActive",
          "type": "bool"
        }
      ],
      "name": "ElectionStatusChanged",
      "type": "event"
    },
    {
      "anonymous": false,
      "inputs": [
        {
          "indexed": true,
          "internalType": "address",
          "name": "previousOwner",
          "type": "address"
        },
        {
          "indexed": true,
          "internalType": "address",
          "name": "newOwner",
          "type": "address"
        }
      ],
      "name": "OwnershipTransferred",
      "type": "event"
    },
    {
      "anonymous": false,
      "inputs": [
        {
          "indexed": false,
          "internalType": "address",
          "name": "account",
          "type": "address"
        }
      ],
      "name": "Paused",
      "type": "event"
    },
    {
      "anonymous": false,
      "inputs": [
        {
          "indexed": false,
          "internalType": "address",
          "name": "account",
          "type": "address"
        }
      ],
      "name": "Unpaused",
      "type": "event"
    },
    {
      "anonymous": false,
      "inputs": [
        {
          "indexed": true,
          "internalType": "uint256",
          "name": "electionId",
          "type": "uint256"
        },
        {
          "indexed": true,
          "internalType": "uint256",
          "name": "candidateId",
          "type": "uint256"
        },
        {
          "indexed": true,
          "internalType": "address",
          "name": "voter",
          "type": "address"
        },
        {
          "indexed": false,
          "internalType": "uint256",
          "name": "timestamp",
          "type": "uint256"
        }
      ],
      "name": "VoteCasted",
      "type": "event"
    },
    {
      "inputs": [
        {
          "internalType": "uint256",
          "name": "_electionId",
          "type": "uint256"
        },
        {
          "internalType": "string",
          "name": "_name",
          "type": "string"
        },
        {
          "internalType": "string",
          "name": "_description",
          "type": "string"
        }
      ],
      "name": "addCandidate",
      "outputs": [
        {
          "internalType": "uint256",
          "name": "",
          "type": "uint256"
        }
      ],
      "stateMutability": "nonpayable",
      "type": "function"
    },
    {
      "inputs": [
        {
          "internalType": "uint256",
          "name": "_electionId",
          "type": "uint256"
        },
        {
          "internalType": "uint256",
          "name": "_candidateId",
          "type": "uint256"
        },
        {
          "internalType": "string",
          "name": "_voterIdHash",
          "type": "string"
        }
      ],
      "name": "castVote",
      "outputs": [],
      "stateMutability": "nonpayable",
      "type": "function"
    },
    {
      "inputs": [
        {
          "internalType": "string",
          "name": "_title",
          "type": "string"
        },
        {
          "internalType": "string",
          "name": "_description",
          "type": "string"
        },
        {
          "internalType": "uint256",
          "name": "_startTime",
          "type": "uint256"
        },
        {
          "internalType": "uint256",
          "name": "_endTime",
          "type": "uint256"
        }
      ],
      "name": "createElection",
      "outputs": [
        {
          "internalType": "uint256",
          "name": "",
          "type": "uint256"
        }
      ],
      "stateMutability": "nonpayable",
      "type": "function"
    },
    {
      "inputs": [],
      "name": "electionCount",
      "outputs": [
        {
          "internalType": "uint256",
          "name": "",
          "type": "uint256"
        }
      ],
      "stateMutability": "view",
      "type": "function"
    },
    {
      "inputs": [
        {
          "internalType": "uint256",
          "name": "",
          "type": "uint256"
        }
      ],
      "name": "elections",
      "outputs": [
        {
          "internalType": "uint256",
          "name": "id",
          "type": "uint256"
        },
        {
          "internalType": "string",
          "name": "title",
          "type": "string"
        },
        {
          "internalType": "string",
          "name": "description",
          "type": "string"
        },
        {
          "internalType": "uint256",
          "name": "startTime",
          "type": "uint256"
        },
        {
          "internalType": "uint256",
          "name": "endTime",
          "type": "uint256"
        },
        {
          "internalType": "bool",
          "name": "isActive",
          "type": "bool"
        },
        {
          "internalType": "uint256",
          "name": "candidateCount",
          "type": "uint256"
        },
        {
          "internalType": "uint256",
          "name": "totalVotes",
          "type": "uint256"
        }
      ],
      "stateMutability": "view",
      "type": "function"
    },
    {
      "inputs": [
        {
          "internalType": "uint256",
          "name": "_electionId",
          "type": "uint256"
        }
      ],
      "name": "getAllCandidates",
      "outputs": [
        {
          "internalType": "uint256[]",
          "name": "ids",
          "type": "uint256[]"
        },
        {
          "internalType": "string[]",
          "name": "names",
          "type": "string[]"
        },
        {
          "internalType": "string[]",
          "name": "descriptions",
          "type": "string[]"
        },
        {
          "internalType": "uint256[]",
          "name": "voteCounts",
          "type": "uint256[]"
        },
        {
          "internalType": "bool[]",
          "name": "activeStatuses",
          "type": "bool[]"
        }
      ],
      "stateMutability": "view",
      "type": "function"
    },
    {
      "inputs": [
        {
          "internalType": "uint256",
          "name": "_electionId",
          "type": "uint256"
        },
        {
          "internalType": "uint256",
          "name": "_candidateId",
          "type": "uint256"
        }
      ],
      "name": "getCandidate",
      "outputs": [
        {
          "internalType": "uint256",
          "name": "id",
          "type": "uint256"
        },
        {
          "internalType": "string",
          "name": "name",
          "type": "string"
        },
        {
          "internalType": "string",
          "name": "description",
          "type": "string"
        },
        {
          "internalType": "uint256",
          "name": "voteCount",
          "type": "uint256"
        },
        {
          "internalType": "bool",
          "name": "isActive",
          "type": "bool"
        }
      ],
      "stateMutability": "view",
      "type": "function"
    },
    {
      "inputs": [
        {
          "internalType": "uint256",
          "name": "_electionId",
          "type": "uint256"
        }
      ],
      "name": "getElection",
      "outputs": [
        {
          "internalType": "uint256",
          "name": "id",
          "type": "uint256"
        },
        {
          "internalType": "string",
          "name": "title",
          "type": "string"
        },
        {
          "internalType": "string",
          "name": "description",
          "type": "string"
        },
        {
          "internalType": "uint256",
          "name": "startTime",
          "type": "uint256"
        },
        {
          "internalType": "uint256",
          "name": "endTime",
          "type": "uint256"
        },
        {
          "internalType": "bool",
          "name": "isActive",
          "type": "bool"
        },
        {
          "internalType": "uint256",
          "name": "candidateCount",
          "type": "uint256"
        },
        {
          "internalType": "uint256",
          "name": "totalVotes",
          "type": "uint256"
        }
      ],
      "stateMutability": "view",
      "type": "function"
    },
    {
      "inputs": [
        {
          "internalType": "uint256",
          "name": "_electionId",
          "type": "uint256"
        }
      ],
      "name": "getElectionResults",
      "outputs": [
        {
          "internalType": "uint256[]",
          "name": "candidateIds",
          "type": "uint256[]"
        },
        {
          "internalType": "string[]",
          "name": "candidateNames",
          "type": "string[]"
        },
        {
          "internalType": "uint256[]",
          "name": "voteCounts",
          "type": "uint256[]"
        },
        {
          "internalType": "uint256",
          "name": "totalVotes",
          "type": "uint256"
        }
      ],
      "stateMutability": "view",
      "type": "function"
    },
    {
      "inputs": [
        {
          "internalType": "address",
          "name": "_voter",
          "type": "address"
        },
        {
          "internalType": "uint256",
          "name": "_electionId",
          "type": "uint256"
        }
      ],
      "name": "hasVotedInElection",
      "outputs": [
        {
          "internalType": "bool",
          "name": "",
          "type": "bool"
        }
      ],
      "stateMutability": "view",
      "type": "function"
    },
    {
      "inputs": [],
      "name": "owner",
      "outputs": [
        {
          "internalType": "address",
          "name": "",
          "type": "address"
        }
      ],
      "stateMutability": "view",
      "type": "function"
    },
    {
      "inputs": [],
      "name": "pause",
      "outputs": [],
      "stateMutability": "nonpayable",
      "type": "function"
    },
    {
      "inputs": [],
      "name": "paused",
      "outputs": [
        {
          "internalType": "bool",
          "name": "",
          "type": "bool"
        }
      ],
      "stateMutability": "view",
      "type": "function"
    },
    {
      "inputs": [],
      "name": "renounceOwnership",
      "outputs": [],
      "stateMutability": "nonpayable",
      "type": "function"
    },
    {
      "inputs": [
        {
          "internalType": "uint256",
          "name": "_electionId",
          "type": "uint256"
        }
      ],
      "name": "toggleElectionStatus",
      "outputs": [],
      "stateMutability": "nonpayable",
      "type": "function"
    },
    {
      "inputs": [
        {
          "internalType": "address",
          "name": "newOwner",
          "type": "address"
        }
      ],
      "name": "transferOwnership",
      "outputs": [],
      "stateMutability": "nonpayable",
      "type": "function"
    },
    {
      "inputs": [],
      "name": "unpause",
      "outputs": [],
      "stateMutability": "nonpayable",
      "type": "function"
    },
    {
      "inputs": [
        {
          "internalType": "string",
          "name": "",
          "type": "string"
        }
      ],
      "name": "usedVoterIds",
      "outputs": [
        {
          "internalType": "bool",
          "name": "",
          "type": "bool"
        }
      ],
      "stateMutability": "view",
      "type": "function"
    },
    {
      "inputs": [
        {
          "internalType": "address",
          "name": "",
          "type": "address"
        },
        {
          "internalType": "uint256",
          "name": "",
          "type": "uint256"
        }
      ],
      "name": "voters",
      "outputs": [
        {
          "internalType": "bool",
          "name": "hasVoted",
          "type": "bool"
        },
        {
          "internalType": "uint256",
          "name": "votedElectionId",
          "type": "uint256"
        },
        {
          "internalType": "uint256",
          "name": "votedCandidateId",
          "type": "uint256"
        },
        {
          "internalType": "uint256",
          "name": "timestamp",
          "type": "uint256"
        }
      ],
      "stateMutability": "view",
      "type": "function"
    }
  ],
  "bytecode": "0x608060405234801561001057600080fd5b5061001a3361002d565b600180556002805460ff1916905561007d565b600080546001600160a01b038381166001600160a01b0319831681178455604051919092169283917f8be0079c531659141344cd1fd0a4f28419497f9722a3daafe3b4186f6b6457e09190a35050565b6122358061008c6000396000f3fe608060405234801561001057600080fd5b50600436106101215760003560e01c80637ad36e84116100ad5780639d710777116100715780639d710777146102c1578063e6c62efc146102d4578063e8ededa6146102e7578063f2fde38b1461030a578063f9ded6461461031d57600080fd5b80637ad36e84146102615780638456cb59146102825780638da5cb5b1461028a57806391585ba7146102a5578063997d2830146102b857600080fd5b806357c29e05116100f457806357c29e05146101835780635c134d66146101c15780635c975abb146102275780635e6fef0114610232578063715018a61461025957600080fd5b806316ed95c81461012657806324f99b1e1461013b5780633f4ba83a1461014e5780634bd4644814610156575b600080fd5b610139610134366004611ad1565b610341565b005b610139610149366004611b8c565b6103e2565b61013961088d565b610169610164366004611bdb565b61089f565b60405161017a959493929190611c4d565b60405180910390f35b6101b1610191366004611c92565b805160208183018101805160058252928201919093012091525460ff1681565b604051901515815260200161017a565b6102056101cf366004611cea565b6004602090815260009283526040808420909152908252902080546001820154600283015460039093015460ff90921692909184565b604080519415158552602085019390935291830152606082015260800161017a565b60025460ff166101b1565b610245610240366004611ad1565b610b18565b60405161017a989796959493929190611d14565b610139610c6d565b61027461026f366004611d6e565b610c7f565b60405190815260200161017a565b610139610e38565b6000546040516001600160a01b03909116815260200161017a565b6101b16102b3366004611cea565b610e48565b61027460065481565b6102456102cf366004611ad1565b610e76565b6102746102e2366004611de1565b611031565b6102fa6102f5366004611ad1565b6111ed565b60405161017a9493929190611ed3565b610139610318366004611f1e565b611455565b61033061032b366004611ad1565b6114ce565b60405161017a959493929190611f40565b6103496118b0565b8060008111801561035c57506006548111155b6103815760405162461bcd60e51b815260040161037890611fd5565b60405180910390fd5b600082815260036020908152604091829020600501805460ff8082161560ff199092168217909255925192161515825283917f550243ff1a84cc99f7f82bfd2e29380f33523ca72cde0783141c25ed8f4dede3910160405180910390a25050565b6103ea61190a565b6103f2611963565b8260008111801561040557506006548111155b6104215760405162461bcd60e51b815260040161037890611fd5565b600084815260036020526040902060050154849060ff1661047d5760405162461bcd60e51b8152602060048201526016602482015275456c656374696f6e206973206e6f742061637469766560501b6044820152606401610378565b600081815260036020819052604090912001544210156104df5760405162461bcd60e51b815260206004820152601860248201527f456c656374696f6e20686173206e6f74207374617274656400000000000000006044820152606401610378565b6000818152600360205260409020600401544211156105355760405162461bcd60e51b8152602060048201526012602482015271115b1958dd1a5bdb881a185cc8195b99195960721b6044820152606401610378565b848460008111801561055857506000828152600360205260409020600701548111155b61059f5760405162461bcd60e51b815260206004820152601860248201527710d85b991a59185d1948191bd95cc81b9bdd08195e1a5cdd60421b6044820152606401610378565b600082815260036020908152604080832084845260060190915290206004015460ff166106085760405162461bcd60e51b815260206004820152601760248201527643616e646964617465206973206e6f742061637469766560481b6044820152606401610378565b3360009081526004602090815260408083208a8452909152902054879060ff16156106855760405162461bcd60e51b815260206004820152602760248201527f596f75206861766520616c726561647920766f74656420696e207468697320656044820152663632b1ba34b7b760c91b6064820152608401610378565b600586604051610695919061200c565b9081526040519081900360200190205460ff16156107015760405162461bcd60e51b815260206004820152602360248201527f5468697320766f7465722049442068617320616c7265616479206265656e20756044820152621cd95960ea1b6064820152608401610378565b6001600587604051610713919061200c565b908152602001604051809103902060006101000a81548160ff02191690831515021790555060405180608001604052806001151581526020018981526020018881526020014281525060046000336001600160a01b03166001600160a01b0316815260200190815260200160002060008a815260200190815260200160002060008201518160000160006101000a81548160ff021916908315150217905550602082015181600101556040820151816002015560608201518160030155905050600360008981526020019081526020016000206006016000888152602001908152602001600020600301600081548092919061080e9061203e565b909155505060008881526003602052604081206008018054916108308361203e565b9190505550336001600160a01b031687897f65d454d478da372551c82c6c75a03804bc30df370b0edebfd72aaabca9c2e6e14260405161087291815260200190565b60405180910390a4505050505061088860018055565b505050565b6108956118b0565b61089d6119a9565b565b6000606080600080866000811180156108ba57506006548111155b6108d65760405162461bcd60e51b815260040161037890611fd5565b87876000811180156108f957506000828152600360205260409020600701548111155b6109405760405162461bcd60e51b815260206004820152601860248201527710d85b991a59185d1948191bd95cc81b9bdd08195e1a5cdd60421b6044820152606401610378565b600082815260036020908152604080832084845260060190915290206004015460ff166109a95760405162461bcd60e51b815260206004820152601760248201527643616e646964617465206973206e6f742061637469766560481b6044820152606401610378565b60008a81526003602081815260408084208d8552600601909152909120805491810154600482015460018301805493949390926002860192909160ff9091169084906109f490612057565b80601f0160208091040260200160405190810160405280929190818152602001828054610a2090612057565b8015610a6d5780601f10610a4257610100808354040283529160200191610a6d565b820191906000526020600020905b815481529060010190602001808311610a5057829003601f168201915b50505050509350828054610a8090612057565b80601f0160208091040260200160405190810160405280929190818152602001828054610aac90612057565b8015610af95780601f10610ace57610100808354040283529160200191610af9565b820191906000526020600020905b815481529060010190602001808311610adc57829003601f168201915b5050505050925098509850985098509850505050509295509295909350565b60036020526000908152604090208054600182018054919291610b3a90612057565b80601f0160208091040260200160405190810160405280929190818152602001828054610b6690612057565b8015610bb35780601f10610b8857610100808354040283529160200191610bb3565b820191906000526020600020905b815481529060010190602001808311610b9657829003601f168201915b505050505090806002018054610bc890612057565b80601f0160208091040260200160405190810160405280929190818152602001828054610bf490612057565b8015610c415780601f10610c1657610100808354040283529160200191610c41565b820191906000526020600020905b815481529060010190602001808311610c2457829003601f168201915b50505060038401546004850154600586015460078701546008909701549596929591945060ff16925088565b610c756118b0565b61089d60006119fb565b6000610c896118b0565b6000855111610cd25760405162461bcd60e51b81526020600482015260156024820152745469746c652063616e6e6f7420626520656d70747960581b6044820152606401610378565b828211610d2b5760405162461bcd60e51b815260206004820152602160248201527f456e642074696d65206d7573742062652061667465722073746172742074696d6044820152606560f81b6064820152608401610378565b428311610d7a5760405162461bcd60e51b815260206004820181905260248201527f53746172742074696d65206d75737420626520696e20746865206675747572656044820152606401610378565b60068054906000610d8a8361203e565b9091555050600654600081815260036020526040902090815560018101610db187826120df565b5060028101610dc086826120df565b50600381018490556004810183905560058101805460ff1916600117905560006007820181905560088201556006546040517fe7a0aae5d733e07e246dea86213a1ac1b0aa8554bde889bb75c12752f44e53d990610e239089908890889061219e565b60405180910390a25050600654949350505050565b610e406118b0565b61089d611a4b565b6001600160a01b038216600090815260046020908152604080832084845290915290205460ff165b92915050565b6000606080600080600080600088600081118015610e9657506006548111155b610eb25760405162461bcd60e51b815260040161037890611fd5565b6000600360008c8152602001908152602001600020905080600001548160010182600201836003015484600401548560050160009054906101000a900460ff1686600701548760080154868054610f0890612057565b80601f0160208091040260200160405190810160405280929190818152602001828054610f3490612057565b8015610f815780601f10610f5657610100808354040283529160200191610f81565b820191906000526020600020905b815481529060010190602001808311610f6457829003601f168201915b50505050509650858054610f9490612057565b80601f0160208091040260200160405190810160405280929190818152602001828054610fc090612057565b801561100d5780601f10610fe25761010080835404028352916020019161100d565b820191906000526020600020905b815481529060010190602001808311610ff057829003601f168201915b50505050509550995099509950995099509950995099505050919395975091939597565b600061103b6118b0565b8360008111801561104e57506006548111155b61106a5760405162461bcd60e51b815260040161037890611fd5565b60008451116110bb5760405162461bcd60e51b815260206004820152601e60248201527f43616e646964617465206e616d652063616e6e6f7420626520656d70747900006044820152606401610378565b6000858152600360208190526040909120015442106111305760405162461bcd60e51b815260206004820152602b60248201527f43616e6e6f74206164642063616e6469646174657320616674657220656c656360448201526a74696f6e2073746172747360a81b6064820152608401610378565b6000858152600360205260408120600781018054919261114f8361203e565b90915550506007810154600081815260068301602052604090209081556001810161117a87826120df565b506002810161118986826120df565b506000600382015560048101805460ff19166001179055600782015460405188907fed8911b3df733b7d5f75724158e54478ea12e30f49c9d31b5261879f5b76586f906111d7908a906121c3565b60405180910390a3506007015495945050505050565b606080606060008460008111801561120757506006548111155b6112235760405162461bcd60e51b815260040161037890611fd5565b60008681526003602052604090206007810154806001600160401b0381111561124e5761124e611aea565b604051908082528060200260200182016040528015611277578160200160208202803683370190505b509650806001600160401b0381111561129257611292611aea565b6040519080825280602002602001820160405280156112c557816020015b60608152602001906001900390816112b05790505b509550806001600160401b038111156112e0576112e0611aea565b604051908082528060200260200182016040528015611309578160200160208202803683370190505b50945060015b81811161144557600081815260068401602052604090208054896113346001856121d6565b81518110611344576113446121e9565b60200260200101818152505080600101805461135f90612057565b80601f016020809104026020016040519081016040528092919081815260200182805461138b90612057565b80156113d85780601f106113ad576101008083540402835291602001916113d8565b820191906000526020600020905b8154815290600101906020018083116113bb57829003601f168201915b5050505050886001846113eb91906121d6565b815181106113fb576113fb6121e9565b60209081029190910101526003810154876114176001856121d6565b81518110611427576114276121e9565b6020908102919091010152508061143d8161203e565b91505061130f565b5050600801549150509193509193565b61145d6118b0565b6001600160a01b0381166114c25760405162461bcd60e51b815260206004820152602660248201527f4f776e61626c653a206e6577206f776e657220697320746865207a65726f206160448201526564647265737360d01b6064820152608401610378565b6114cb816119fb565b50565b6060806060806060856000811180156114e957506006548111155b6115055760405162461bcd60e51b815260040161037890611fd5565b60008781526003602052604090206007810154806001600160401b0381111561153057611530611aea565b604051908082528060200260200182016040528015611559578160200160208202803683370190505b509750806001600160401b0381111561157457611574611aea565b6040519080825280602002602001820160405280156115a757816020015b60608152602001906001900390816115925790505b509650806001600160401b038111156115c2576115c2611aea565b6040519080825280602002602001820160405280156115f557816020015b60608152602001906001900390816115e05790505b509550806001600160401b0381111561161057611610611aea565b604051908082528060200260200182016040528015611639578160200160208202803683370190505b509450806001600160401b0381111561165457611654611aea565b60405190808252806020026020018201604052801561167d578160200160208202803683370190505b50935060015b8181116118a3576000818152600684016020526040902080548a6116a86001856121d6565b815181106116b8576116b86121e9565b6020026020010181815250508060010180546116d390612057565b80601f01602080910402602001604051908101604052809291908181526020018280546116ff90612057565b801561174c5780601f106117215761010080835404028352916020019161174c565b820191906000526020600020905b81548152906001019060200180831161172f57829003601f168201915b50505050508960018461175f91906121d6565b8151811061176f5761176f6121e9565b602002602001018190525080600201805461178990612057565b80601f01602080910402602001604051908101604052809291908181526020018280546117b590612057565b80156118025780601f106117d757610100808354040283529160200191611802565b820191906000526020600020905b8154815290600101906020018083116117e557829003601f168201915b50505050508860018461181591906121d6565b81518110611825576118256121e9565b60209081029190910101526003810154876118416001856121d6565b81518110611851576118516121e9565b6020908102919091010152600481015460ff16866118706001856121d6565b81518110611880576118806121e9565b91151560209283029190910190910152508061189b8161203e565b915050611683565b5050505091939590929450565b6000546001600160a01b0316331461089d5760405162461bcd60e51b815260206004820181905260248201527f4f776e61626c653a2063616c6c6572206973206e6f7420746865206f776e65726044820152606401610378565b60026001540361195c5760405162461bcd60e51b815260206004820152601f60248201527f5265656e7472616e637947756172643a207265656e7472616e742063616c6c006044820152606401610378565b6002600155565b60025460ff161561089d5760405162461bcd60e51b815260206004820152601060248201526f14185d5cd8589b194e881c185d5cd95960821b6044820152606401610378565b6119b1611a88565b6002805460ff191690557f5db9ee0a495bf2e6ff9c91a7834c1ba4fdd244a5e8aa4e537bd38aeae4b073aa335b6040516001600160a01b03909116815260200160405180910390a1565b600080546001600160a01b038381166001600160a01b0319831681178455604051919092169283917f8be0079c531659141344cd1fd0a4f28419497f9722a3daafe3b4186f6b6457e09190a35050565b611a53611963565b6002805460ff191660011790557f62e78cea01bee320cd4e420270b5ea74000d11b0c9f74754ebdbfc544b05a2586119de3390565b60025460ff1661089d5760405162461bcd60e51b815260206004820152601460248201527314185d5cd8589b194e881b9bdd081c185d5cd95960621b6044820152606401610378565b600060208284031215611ae357600080fd5b5035919050565b634e487b7160e01b600052604160045260246000fd5b600082601f830112611b1157600080fd5b81356001600160401b0380821115611b2b57611b2b611aea565b604051601f8301601f19908116603f01168101908282118183101715611b5357611b53611aea565b81604052838152866020858801011115611b6c57600080fd5b836020870160208301376000602085830101528094505050505092915050565b600080600060608486031215611ba157600080fd5b833592506020840135915060408401356001600160401b03811115611bc557600080fd5b611bd186828701611b00565b9150509250925092565b60008060408385031215611bee57600080fd5b50508035926020909101359150565b60005b83811015611c18578181015183820152602001611c00565b50506000910152565b60008151808452611c39816020860160208601611bfd565b601f01601f19169290920160200192915050565b85815260a060208201526000611c6660a0830187611c21565b8281036040840152611c788187611c21565b606084019590955250509015156080909101529392505050565b600060208284031215611ca457600080fd5b81356001600160401b03811115611cba57600080fd5b611cc684828501611b00565b949350505050565b80356001600160a01b0381168114611ce557600080fd5b919050565b60008060408385031215611cfd57600080fd5b611d0683611cce565b946020939093013593505050565b60006101008a8352806020840152611d2e8184018b611c21565b90508281036040840152611d42818a611c21565b60608401989098525050608081019490945291151560a084015260c083015260e0909101529392505050565b60008060008060808587031215611d8457600080fd5b84356001600160401b0380821115611d9b57600080fd5b611da788838901611b00565b95506020870135915080821115611dbd57600080fd5b50611dca87828801611b00565b949794965050505060408301359260600135919050565b600080600060608486031215611df657600080fd5b8335925060208401356001600160401b0380821115611e1457600080fd5b611e2087838801611b00565b93506040860135915080821115611e3657600080fd5b50611bd186828701611b00565b600081518084526020808501945080840160005b83811015611e7357815187529582019590820190600101611e57565b509495945050505050565b600081518084526020808501808196508360051b8101915082860160005b85811015611ec6578284038952611eb4848351611c21565b98850198935090840190600101611e9c565b5091979650505050505050565b608081526000611ee66080830187611e43565b8281036020840152611ef88187611e7e565b90508281036040840152611f0c8186611e43565b91505082606083015295945050505050565b600060208284031215611f3057600080fd5b611f3982611cce565b9392505050565b60a081526000611f5360a0830188611e43565b602083820381850152611f668289611e7e565b91508382036040850152611f7a8288611e7e565b91508382036060850152611f8e8287611e43565b8481036080860152855180825282870193509082019060005b81811015611fc5578451151583529383019391830191600101611fa7565b50909a9950505050505050505050565b60208082526017908201527f456c656374696f6e20646f6573206e6f74206578697374000000000000000000604082015260600190565b6000825161201e818460208701611bfd565b9190910192915050565b634e487b7160e01b600052601160045260246000fd5b60006001820161205057612050612028565b5060010190565b600181811c9082168061206b57607f821691505b60208210810361208b57634e487b7160e01b600052602260045260246000fd5b50919050565b601f82111561088857600081815260208120601f850160051c810160208610156120b85750805b601f850160051c820191505b818110156120d7578281556001016120c4565b505050505050565b81516001600160401b038111156120f8576120f8611aea565b61210c816121068454612057565b84612091565b602080601f83116001811461214157600084156121295750858301515b600019600386901b1c1916600185901b1785556120d7565b600085815260208120601f198616915b8281101561217057888601518255948401946001909101908401612151565b508582101561218e5787850151600019600388901b60f8161c191681555b5050505050600190811b01905550565b6060815260006121b16060830186611c21565b60208301949094525060400152919050565b602081526000611f396020830184611c21565b81810381811115610e7057610e70612028565b634e487b7160e01b600052603260045260246000fdfea264697066735822122058d5e856f451adccc17e1b0cb5c92cbfa4ceb6e2228c56975541a0701613fbb664736f6c63430008130033",
  "linkReferences": {},
  "deployedLinkReferences": {}
}